{
  "_format": "hh-sol-artifact-1",
  "contractName": "ChancyRandomness",
  "sourceName": "contracts/ChancyRandomness.sol",
  "abi": [
    {
      "inputs": [
        {
          "internalType": "address",
          "name": "entropyAddress",
          "type": "address"
        },
        {
          "internalType": "address",
          "name": "operator_",
          "type": "address"
        }
      ],
      "stateMutability": "nonpayable",
      "type": "constructor"
    },
    {
      "inputs": [
        {
          "internalType": "uint64",
          "name": "sequenceNumber",
          "type": "uint64"
        }
      ],
      "name": "ALREADY_RESOLVED",
      "type": "error"
    },
    {
      "inputs": [],
      "name": "INSUFFICIENT_FEE",
      "type": "error"
    },
    {
      "inputs": [],
      "name": "NOT_OPERATOR",
      "type": "error"
    },
    {
      "anonymous": false,
      "inputs": [
        {
          "indexed": true,
          "internalType": "uint64",
          "name": "sequenceNumber",
          "type": "uint64"
        },
        {
          "indexed": true,
          "internalType": "bytes32",
          "name": "userRandomNumber",
          "type": "bytes32"
        },
        {
          "indexed": true,
          "internalType": "address",
          "name": "requester",
          "type": "address"
        }
      ],
      "name": "RandomnessRequested",
      "type": "event"
    },
    {
      "anonymous": false,
      "inputs": [
        {
          "indexed": true,
          "internalType": "uint64",
          "name": "sequenceNumber",
          "type": "uint64"
        },
        {
          "indexed": false,
          "internalType": "bytes32",
          "name": "pythRandomNumber",
          "type": "bytes32"
        }
      ],
      "name": "RandomnessResolved",
      "type": "event"
    },
    {
      "inputs": [],
      "name": "CALLBACK_GAS_LIMIT",
      "outputs": [
        {
          "internalType": "uint32",
          "name": "",
          "type": "uint32"
        }
      ],
      "stateMutability": "view",
      "type": "function"
    },
    {
      "inputs": [
        {
          "internalType": "uint64",
          "name": "sequence",
          "type": "uint64"
        },
        {
          "internalType": "address",
          "name": "provider",
          "type": "address"
        },
        {
          "internalType": "bytes32",
          "name": "randomNumber",
          "type": "bytes32"
        }
      ],
      "name": "_entropyCallback",
      "outputs": [],
      "stateMutability": "nonpayable",
      "type": "function"
    },
    {
      "inputs": [
        {
          "internalType": "uint256",
          "name": "",
          "type": "uint256"
        }
      ],
      "name": "allSequenceNumbers",
      "outputs": [
        {
          "internalType": "uint64",
          "name": "",
          "type": "uint64"
        }
      ],
      "stateMutability": "view",
      "type": "function"
    },
    {
      "inputs": [],
      "name": "entropy",
      "outputs": [
        {
          "internalType": "contract IEntropyV2",
          "name": "",
          "type": "address"
        }
      ],
      "stateMutability": "view",
      "type": "function"
    },
    {
      "inputs": [],
      "name": "getFee",
      "outputs": [
        {
          "internalType": "uint128",
          "name": "",
          "type": "uint128"
        }
      ],
      "stateMutability": "view",
      "type": "function"
    },
    {
      "inputs": [
        {
          "internalType": "uint64",
          "name": "seq",
          "type": "uint64"
        }
      ],
      "name": "getRequest",
      "outputs": [
        {
          "internalType": "bytes32",
          "name": "userRandomNumber",
          "type": "bytes32"
        },
        {
          "internalType": "bytes32",
          "name": "pythRandomNumber",
          "type": "bytes32"
        },
        {
          "internalType": "bool",
          "name": "resolved",
          "type": "bool"
        },
        {
          "internalType": "uint256",
          "name": "requestedAt",
          "type": "uint256"
        }
      ],
      "stateMutability": "view",
      "type": "function"
    },
    {
      "inputs": [],
      "name": "operator",
      "outputs": [
        {
          "internalType": "address",
          "name": "",
          "type": "address"
        }
      ],
      "stateMutability": "view",
      "type": "function"
    },
    {
      "inputs": [
        {
          "internalType": "bytes32",
          "name": "userRandomNumber",
          "type": "bytes32"
        }
      ],
      "name": "request",
      "outputs": [
        {
          "internalType": "uint64",
          "name": "sequenceNumber",
          "type": "uint64"
        }
      ],
      "stateMutability": "payable",
      "type": "function"
    },
    {
      "inputs": [],
      "name": "requestCount",
      "outputs": [
        {
          "internalType": "uint256",
          "name": "",
          "type": "uint256"
        }
      ],
      "stateMutability": "view",
      "type": "function"
    },
    {
      "inputs": [
        {
          "internalType": "uint64",
          "name": "",
          "type": "uint64"
        }
      ],
      "name": "requests",
      "outputs": [
        {
          "internalType": "bytes32",
          "name": "userRandomNumber",
          "type": "bytes32"
        },
        {
          "internalType": "bytes32",
          "name": "pythRandomNumber",
          "type": "bytes32"
        },
        {
          "internalType": "bool",
          "name": "resolved",
          "type": "bool"
        },
        {
          "internalType": "uint64",
          "name": "sequenceNumber",
          "type": "uint64"
        },
        {
          "internalType": "uint256",
          "name": "requestedAt",
          "type": "uint256"
        }
      ],
      "stateMutability": "view",
      "type": "function"
    },
    {
      "inputs": [
        {
          "internalType": "address",
          "name": "newOperator",
          "type": "address"
        }
      ],
      "name": "setOperator",
      "outputs": [],
      "stateMutability": "nonpayable",
      "type": "function"
    },
    {
      "stateMutability": "payable",
      "type": "receive"
    }
  ],
  "bytecode": "0x60a060405234801561001057600080fd5b50604051610dad380380610dad83398101604081905261002f91610109565b6001600160a01b03821661007c5760405162461bcd60e51b815260206004820152600f60248201526e494e56414c49445f454e54524f505960881b60448201526064015b60405180910390fd5b6001600160a01b0381166100c55760405162461bcd60e51b815260206004820152601060248201526f24a72b20a624a22fa7a822a920aa27a960811b6044820152606401610073565b6001600160a01b03918216608052600080546001600160a01b0319169190921617905561013c565b80516001600160a01b038116811461010457600080fd5b919050565b6000806040838503121561011c57600080fd5b610125836100ed565b9150610133602084016100ed565b90509250929050565b608051610c2c6101816000396000818161017e0152818161032d0152818161044c015281816104fa015281816105c0015281816108de01526109890152610c2c6000f3fe6080604052600436106100a05760003560e01c806359c87d701161006457806359c87d70146101fa5780635badbe4c1461022657806373172cb814610244578063b3ab15fb14610264578063cbbf67ec14610284578063ced72f87146102fe57600080fd5b806333d608f1146100ac578063411010ec146100dd57806347ce07cc1461016c57806352a5f1f8146101b8578063570ca735146101da57600080fd5b366100a757005b600080fd5b3480156100b857600080fd5b506100c36205573081565b60405163ffffffff90911681526020015b60405180910390f35b3480156100e957600080fd5b506101356100f8366004610abc565b60016020819052600091825260409091208054918101546002820154600390920154909160ff81169161010090910467ffffffffffffffff169085565b6040805195865260208601949094529115159284019290925267ffffffffffffffff9091166060830152608082015260a0016100d4565b34801561017857600080fd5b506101a07f000000000000000000000000000000000000000000000000000000000000000081565b6040516001600160a01b0390911681526020016100d4565b3480156101c457600080fd5b506101d86101d3366004610af5565b61032b565b005b3480156101e657600080fd5b506000546101a0906001600160a01b031681565b61020d610208366004610b36565b61041c565b60405167ffffffffffffffff90911681526020016100d4565b34801561023257600080fd5b506002546040519081526020016100d4565b34801561025057600080fd5b5061020d61025f366004610b36565b610805565b34801561027057600080fd5b506101d861027f366004610b4f565b610843565b34801561029057600080fd5b506102d861029f366004610abc565b67ffffffffffffffff16600090815260016020819052604090912080549181015460028201546003909201549293909260ff9092169190565b6040805194855260208501939093529015159183019190915260608201526080016100d4565b34801561030a57600080fd5b506103136108d9565b6040516001600160801b0390911681526020016100d4565b7f00000000000000000000000000000000000000000000000000000000000000006001600160a01b0381166103a75760405162461bcd60e51b815260206004820152601760248201527f456e74726f70792061646472657373206e6f742073657400000000000000000060448201526064015b60405180910390fd5b336001600160a01b0382161461040b5760405162461bcd60e51b815260206004820152602360248201527f4f6e6c7920456e74726f70792063616e2063616c6c20746869732066756e637460448201526234b7b760e91b606482015260840161039e565b6104168484846109fc565b50505050565b600080546001600160a01b0316331461044857604051630ce525af60e11b815260040160405180910390fd5b60007f00000000000000000000000000000000000000000000000000000000000000006001600160a01b03166382ee990c6040518163ffffffff1660e01b8152600401602060405180830381865afa1580156104a8573d6000803e3d6000fd5b505050506040513d601f19601f820116820180604052508101906104cc9190610b6c565b604051633d59561b60e11b81526001600160a01b0380831660048301526205573060248301529192506000917f00000000000000000000000000000000000000000000000000000000000000001690637ab2ac3690604401602060405180830381865afa158015610541573d6000803e3d6000fd5b505050506040513d601f19601f820116820180604052508101906105659190610b89565b9050806001600160801b0316341015610591576040516380e5952760e01b815260040160405180910390fd5b60405163f77b45e160e01b81526001600160a01b038381166004830152602482018690526205573060448301527f0000000000000000000000000000000000000000000000000000000000000000169063f77b45e1906001600160801b0384169060640160206040518083038185885af1158015610613573d6000803e3d6000fd5b50505050506040513d601f19601f820116820180604052508101906106389190610bb2565b6040805160a0810182528681526000602080830182815283850183815267ffffffffffffffff87811660608701818152426080890190815282885260019687905298872097518855935187860155915160028088018054955168ffffffffffffffffff1990961692151568ffffffffffffffff001916929092176101009584168602179091559651600396870155865493840187559584527f405787fa12a823e0f2b7631cc41b3ba8828b3321ca811111fa75cd3aa3bb5ace600484040180549390951660080290910a9485021990911693029290921790559093506107276001600160801b03831634610bcf565b905080156107c457600080546040516001600160a01b039091169083908381818185875af1925050503d806000811461077c576040519150601f19603f3d011682016040523d82523d6000602084013e610781565b606091505b50509050806107c25760405162461bcd60e51b815260206004820152600d60248201526c14915195539117d19052531151609a1b604482015260640161039e565b505b6040513390869067ffffffffffffffff8716907f788b2896bff88aa30a4082c32184359117791464d87b91467032fef73d79e50d90600090a4505050919050565b6002818154811061081557600080fd5b9060005260206000209060049182820401919006600802915054906101000a900467ffffffffffffffff1681565b6000546001600160a01b0316331461086e57604051630ce525af60e11b815260040160405180910390fd5b6001600160a01b0381166108b75760405162461bcd60e51b815260206004820152601060248201526f24a72b20a624a22fa7a822a920aa27a960811b604482015260640161039e565b600080546001600160a01b0319166001600160a01b0392909216919091179055565b6000807f00000000000000000000000000000000000000000000000000000000000000006001600160a01b03166382ee990c6040518163ffffffff1660e01b8152600401602060405180830381865afa15801561093a573d6000803e3d6000fd5b505050506040513d601f19601f8201168201806040525081019061095e9190610b6c565b604051633d59561b60e11b81526001600160a01b0380831660048301526205573060248301529192507f000000000000000000000000000000000000000000000000000000000000000090911690637ab2ac3690604401602060405180830381865afa1580156109d2573d6000803e3d6000fd5b505050506040513d601f19601f820116820180604052508101906109f69190610b89565b91505090565b67ffffffffffffffff83166000908152600160205260409020600281015460ff1615610a4757604051636b50d65360e11b815267ffffffffffffffff8516600482015260240161039e565b600181810183905560028201805460ff1916909117905560405182815267ffffffffffffffff8516907f5a77bd9fae7563b23dd3cec5e087383790f76b7e00bf4beb822084054cdd77b79060200160405180910390a250505050565b67ffffffffffffffff81168114610ab957600080fd5b50565b600060208284031215610ace57600080fd5b8135610ad981610aa3565b9392505050565b6001600160a01b0381168114610ab957600080fd5b600080600060608486031215610b0a57600080fd5b8335610b1581610aa3565b92506020840135610b2581610ae0565b929592945050506040919091013590565b600060208284031215610b4857600080fd5b5035919050565b600060208284031215610b6157600080fd5b8135610ad981610ae0565b600060208284031215610b7e57600080fd5b8151610ad981610ae0565b600060208284031215610b9b57600080fd5b81516001600160801b0381168114610ad957600080fd5b600060208284031215610bc457600080fd5b8151610ad981610aa3565b81810381811115610bf057634e487b7160e01b600052601160045260246000fd5b9291505056fea2646970667358221220085c668844edf8a29926e62e95cc851516be3bea981f726283bdfa1795174dd264736f6c63430008180033",
  "linkReferences": {},
  "deployedLinkReferences": {}
}